{
  "_format": "hh-sol-artifact-1",
  "contractName": "Hackman",
  "sourceName": "contracts/Hackman.sol",
  "abi": [
    {
      "inputs": [],
      "stateMutability": "nonpayable",
      "type": "constructor"
    },
    {
      "anonymous": false,
      "inputs": [
        {
          "indexed": true,
          "internalType": "address",
          "name": "from",
          "type": "address"
        },
        {
          "indexed": false,
          "internalType": "uint256",
          "name": "timestamp",
          "type": "uint256"
        },
        {
          "indexed": false,
          "internalType": "string",
          "name": "ipfs_link",
          "type": "string"
        },
        {
          "indexed": false,
          "internalType": "string",
          "name": "prob_statement",
          "type": "string"
        }
      ],
      "name": "NewPatient",
      "type": "event"
    },
    {
      "inputs": [],
      "name": "extract",
      "outputs": [
        {
          "internalType": "address",
          "name": "",
          "type": "address"
        }
      ],
      "stateMutability": "view",
      "type": "function"
    },
    {
      "inputs": [
        {
          "internalType": "string",
          "name": "_ipfslink",
          "type": "string"
        },
        {
          "internalType": "string",
          "name": "_probstatement",
          "type": "string"
        }
      ],
      "name": "upload",
      "outputs": [],
      "stateMutability": "nonpayable",
      "type": "function"
    }
  ],
  "bytecode": "0x608060405234801561001057600080fd5b506100596040518060400160405280601981526020017f4465706c6f79696e6720736d61727420636f6e74726163743a0000000000000081525061005e60201b6101be1760201c565b6101e1565b6100fa81604051602401610072919061015f565b6040516020818303038152906040527f41304fac000000000000000000000000000000000000000000000000000000007bffffffffffffffffffffffffffffffffffffffffffffffffffffffff19166020820180517bffffffffffffffffffffffffffffffffffffffffffffffffffffffff83818316178352505050506100fd60201b60201c565b50565b60008151905060006a636f6e736f6c652e6c6f679050602083016000808483855afa5050505050565b600061013182610181565b61013b818561018c565b935061014b81856020860161019d565b610154816101d0565b840191505092915050565b600060208201905081810360008301526101798184610126565b905092915050565b600081519050919050565b600082825260208201905092915050565b60005b838110156101bb5780820151818401526020810190506101a0565b838111156101ca576000848401525b50505050565b6000601f19601f8301169050919050565b6106c8806101f06000396000f3fe608060405234801561001057600080fd5b50600436106100365760003560e01c80631e83cdab1461003b578063202e493614610059575b600080fd5b610043610075565b604051610050919061044e565b60405180910390f35b610073600480360381019061006e919061038b565b61007a565b005b600090565b600160405180608001604052803373ffffffffffffffffffffffffffffffffffffffff16815260200184815260200183815260200142815250908060018154018082558091505060019003906000526020600020906004020160009091909190915060008201518160000160006101000a81548173ffffffffffffffffffffffffffffffffffffffff021916908373ffffffffffffffffffffffffffffffffffffffff160217905550602082015181600101908051906020019061013f929190610280565b50604082015181600201908051906020019061015c929190610280565b506060820151816003015550503373ffffffffffffffffffffffffffffffffffffffff167e9b812a5432f1ddeb564ff98a90627201429d1b5bbddb856098b06000b3c6d14284846040516101b29392919061048b565b60405180910390a25050565b610254816040516024016101d29190610469565b6040516020818303038152906040527f41304fac000000000000000000000000000000000000000000000000000000007bffffffffffffffffffffffffffffffffffffffffffffffffffffffff19166020820180517bffffffffffffffffffffffffffffffffffffffffffffffffffffffff8381831617835250505050610257565b50565b60008151905060006a636f6e736f6c652e6c6f679050602083016000808483855afa5050505050565b82805461028c906105c0565b90600052602060002090601f0160209004810192826102ae57600085556102f5565b82601f106102c757805160ff19168380011785556102f5565b828001600101855582156102f5579182015b828111156102f45782518255916020019190600101906102d9565b5b5090506103029190610306565b5090565b5b8082111561031f576000816000905550600101610307565b5090565b6000610336610331846104f5565b6104d0565b90508281526020810184848401111561034e57600080fd5b61035984828561057e565b509392505050565b600082601f83011261037257600080fd5b8135610382848260208601610323565b91505092915050565b6000806040838503121561039e57600080fd5b600083013567ffffffffffffffff8111156103b857600080fd5b6103c485828601610361565b925050602083013567ffffffffffffffff8111156103e157600080fd5b6103ed85828601610361565b9150509250929050565b61040081610542565b82525050565b600061041182610526565b61041b8185610531565b935061042b81856020860161058d565b61043481610681565b840191505092915050565b61044881610574565b82525050565b600060208201905061046360008301846103f7565b92915050565b600060208201905081810360008301526104838184610406565b905092915050565b60006060820190506104a0600083018661043f565b81810360208301526104b28185610406565b905081810360408301526104c68184610406565b9050949350505050565b60006104da6104eb565b90506104e682826105f2565b919050565b6000604051905090565b600067ffffffffffffffff8211156105105761050f610652565b5b61051982610681565b9050602081019050919050565b600081519050919050565b600082825260208201905092915050565b600061054d82610554565b9050919050565b600073ffffffffffffffffffffffffffffffffffffffff82169050919050565b6000819050919050565b82818337600083830152505050565b60005b838110156105ab578082015181840152602081019050610590565b838111156105ba576000848401525b50505050565b600060028204905060018216806105d857607f821691505b602082108114156105ec576105eb610623565b5b50919050565b6105fb82610681565b810181811067ffffffffffffffff8211171561061a57610619610652565b5b80604052505050565b7f4e487b7100000000000000000000000000000000000000000000000000000000600052602260045260246000fd5b7f4e487b7100000000000000000000000000000000000000000000000000000000600052604160045260246000fd5b6000601f19601f830116905091905056fea26469706673582212209790076589b5033ee8d69ee76f0d9e8006109c17ae799cccd0ddaf79eea7d5ed64736f6c63430008040033",
  "linkReferences": {},
  "deployedLinkReferences": {}
}