{
  "_format": "hh-sol-artifact-1",
  "contractName": "Hackman",
  "sourceName": "contracts/Hackman.sol",
  "abi": [
    {
      "inputs": [],
      "stateMutability": "nonpayable",
      "type": "constructor"
    },
    {
      "anonymous": false,
      "inputs": [
        {
          "indexed": true,
          "internalType": "address",
          "name": "from",
          "type": "address"
        },
        {
          "indexed": false,
          "internalType": "uint256",
          "name": "timestamp",
          "type": "uint256"
        },
        {
          "indexed": false,
          "internalType": "string",
          "name": "ipfs_link",
          "type": "string"
        },
        {
          "indexed": false,
          "internalType": "string",
          "name": "prob_statement",
          "type": "string"
        }
      ],
      "name": "NewPatient",
      "type": "event"
    },
    {
      "inputs": [],
      "name": "getAllSigners",
      "outputs": [
        {
          "components": [
            {
              "internalType": "address",
              "name": "Patient_address",
              "type": "address"
            },
            {
              "internalType": "string",
              "name": "ipfs_link",
              "type": "string"
            },
            {
              "internalType": "string",
              "name": "prob_statement",
              "type": "string"
            },
            {
              "internalType": "uint256",
              "name": "timestamp",
              "type": "uint256"
            }
          ],
          "internalType": "struct Hackman.Patients[]",
          "name": "",
          "type": "tuple[]"
        }
      ],
      "stateMutability": "view",
      "type": "function"
    },
    {
      "inputs": [
        {
          "internalType": "string",
          "name": "_ipfslink",
          "type": "string"
        },
        {
          "internalType": "string",
          "name": "_probstatement",
          "type": "string"
        }
      ],
      "name": "upload",
      "outputs": [],
      "stateMutability": "nonpayable",
      "type": "function"
    }
  ],
  "bytecode": "0x608060405234801561001057600080fd5b506100596040518060400160405280601981526020017f4465706c6f79696e6720736d61727420636f6e74726163743a0000000000000081525061005e60201b61039c1760201c565b6101e1565b6100fa81604051602401610072919061015f565b6040516020818303038152906040527f41304fac000000000000000000000000000000000000000000000000000000007bffffffffffffffffffffffffffffffffffffffffffffffffffffffff19166020820180517bffffffffffffffffffffffffffffffffffffffffffffffffffffffff83818316178352505050506100fd60201b60201c565b50565b60008151905060006a636f6e736f6c652e6c6f679050602083016000808483855afa5050505050565b600061013182610181565b61013b818561018c565b935061014b81856020860161019d565b610154816101d0565b840191505092915050565b600060208201905081810360008301526101798184610126565b905092915050565b600081519050919050565b600082825260208201905092915050565b60005b838110156101bb5780820151818401526020810190506101a0565b838111156101ca576000848401525b50505050565b6000601f19601f8301169050919050565b610a32806101f06000396000f3fe608060405234801561001057600080fd5b50600436106100365760003560e01c8063202e49361461003b578063d42f2f3514610057575b600080fd5b61005560048036038101906100509190610569565b610075565b005b61005f6101b9565b60405161006c9190610767565b60405180910390f35b600160405180608001604052803373ffffffffffffffffffffffffffffffffffffffff16815260200184815260200183815260200142815250908060018154018082558091505060019003906000526020600020906004020160009091909190915060008201518160000160006101000a81548173ffffffffffffffffffffffffffffffffffffffff021916908373ffffffffffffffffffffffffffffffffffffffff160217905550602082015181600101908051906020019061013a92919061045e565b50604082015181600201908051906020019061015792919061045e565b506060820151816003015550503373ffffffffffffffffffffffffffffffffffffffff167e9b812a5432f1ddeb564ff98a90627201429d1b5bbddb856098b06000b3c6d14284846040516101ad939291906107ab565b60405180910390a25050565b60606001805480602002602001604051908101604052809291908181526020016000905b8282101561039357838290600052602060002090600402016040518060800160405290816000820160009054906101000a900473ffffffffffffffffffffffffffffffffffffffff1673ffffffffffffffffffffffffffffffffffffffff1673ffffffffffffffffffffffffffffffffffffffff1681526020016001820180546102669061092a565b80601f01602080910402602001604051908101604052809291908181526020018280546102929061092a565b80156102df5780601f106102b4576101008083540402835291602001916102df565b820191906000526020600020905b8154815290600101906020018083116102c257829003601f168201915b505050505081526020016002820180546102f89061092a565b80601f01602080910402602001604051908101604052809291908181526020018280546103249061092a565b80156103715780601f1061034657610100808354040283529160200191610371565b820191906000526020600020905b81548152906001019060200180831161035457829003601f168201915b50505050508152602001600382015481525050815260200190600101906101dd565b50505050905090565b610432816040516024016103b09190610789565b6040516020818303038152906040527f41304fac000000000000000000000000000000000000000000000000000000007bffffffffffffffffffffffffffffffffffffffffffffffffffffffff19166020820180517bffffffffffffffffffffffffffffffffffffffffffffffffffffffff8381831617835250505050610435565b50565b60008151905060006a636f6e736f6c652e6c6f679050602083016000808483855afa5050505050565b82805461046a9061092a565b90600052602060002090601f01602090048101928261048c57600085556104d3565b82601f106104a557805160ff19168380011785556104d3565b828001600101855582156104d3579182015b828111156104d25782518255916020019190600101906104b7565b5b5090506104e091906104e4565b5090565b5b808211156104fd5760008160009055506001016104e5565b5090565b600061051461050f84610815565b6107f0565b90508281526020810184848401111561052c57600080fd5b6105378482856108e8565b509392505050565b600082601f83011261055057600080fd5b8135610560848260208601610501565b91505092915050565b6000806040838503121561057c57600080fd5b600083013567ffffffffffffffff81111561059657600080fd5b6105a28582860161053f565b925050602083013567ffffffffffffffff8111156105bf57600080fd5b6105cb8582860161053f565b9150509250929050565b60006105e183836106df565b905092915050565b6105f2816108ac565b82525050565b600061060382610856565b61060d8185610879565b93508360208202850161061f85610846565b8060005b8581101561065b578484038952815161063c85826105d5565b94506106478361086c565b925060208a01995050600181019050610623565b50829750879550505050505092915050565b600061067882610861565b610682818561088a565b93506106928185602086016108f7565b61069b816109eb565b840191505092915050565b60006106b182610861565b6106bb818561089b565b93506106cb8185602086016108f7565b6106d4816109eb565b840191505092915050565b60006080830160008301516106f760008601826105e9565b506020830151848203602086015261070f828261066d565b91505060408301518482036040860152610729828261066d565b915050606083015161073e6060860182610749565b508091505092915050565b610752816108de565b82525050565b610761816108de565b82525050565b6000602082019050818103600083015261078181846105f8565b905092915050565b600060208201905081810360008301526107a381846106a6565b905092915050565b60006060820190506107c06000830186610758565b81810360208301526107d281856106a6565b905081810360408301526107e681846106a6565b9050949350505050565b60006107fa61080b565b9050610806828261095c565b919050565b6000604051905090565b600067ffffffffffffffff8211156108305761082f6109bc565b5b610839826109eb565b9050602081019050919050565b6000819050602082019050919050565b600081519050919050565b600081519050919050565b6000602082019050919050565b600082825260208201905092915050565b600082825260208201905092915050565b600082825260208201905092915050565b60006108b7826108be565b9050919050565b600073ffffffffffffffffffffffffffffffffffffffff82169050919050565b6000819050919050565b82818337600083830152505050565b60005b838110156109155780820151818401526020810190506108fa565b83811115610924576000848401525b50505050565b6000600282049050600182168061094257607f821691505b602082108114156109565761095561098d565b5b50919050565b610965826109eb565b810181811067ffffffffffffffff82111715610984576109836109bc565b5b80604052505050565b7f4e487b7100000000000000000000000000000000000000000000000000000000600052602260045260246000fd5b7f4e487b7100000000000000000000000000000000000000000000000000000000600052604160045260246000fd5b6000601f19601f830116905091905056fea26469706673582212200ec854926b9f2293a33db57e20bdf19e0ffe69bec43ecff27e6ca7da492a071564736f6c63430008040033",
  "linkReferences": {},
  "deployedLinkReferences": {}
}